:10000000000002209901000039430000F142000085
:10001000F1420000F1420000F1420000F142000014
:10002000F1420000F1420000F142000039430000BB
:1000300039430000F142000039430000E142000072
:1000400039430000394300003943000039430000C0
:1000500039430000394300003943000039430000B0
:1000600039430000394300003943000039430000A0
:100070003943000039430000394300003943000090
:100080003943000039430000394300003943000080
:100090003943000039430000394300003943000070
:1000A0003943000039430000394300003943000060
:1000B0003943000039430000394300003D5300003C
:1000C000394300003971000039430000B97600005F
:1000D00039430000D17C000039430000394300005F
:1000E0003943000039430000394300003943000020
:1000F0003943000039430000394300003943000010
:1001000039430000394300003943000039430000FF
:1001100039430000BD550000394300003943000059
:1001200039430000394300003943000039430000DF
:1001300039430000394300003943000039430000CF
:1001400039430000394300001D820000394300009C
:10015000698700003943000039430000394300003B
:10016000394300003943000039430000394300009F
:10017000394300003943000039430000394300008F
:10018000394300003943000039430000394300007F
:100190003943000039430000584B4CF2205210B54F
:1001A0001A804DF628121A8000BF00BF04F0C8F86C
:1001B000534B4FF030621A60524A9A60524ADA60EA
:1001C000524B4FF470021A60514A136813F4807353
:1001D00004D150490B604FF4A85313604E4B1A786A
:1001E000110703D51A7842F008021A704B4B4C499C
:1001F0002A221A704B4A4C4B8B4204D252F8040FFD
:1002000043F8040BF8E7494B494900228B4202D2DC
:1002100043F8042BFAE74749474A002352F82300E2
:1002200041F823000133662BF8D1444B444A802126
:1002300003F8011B9342FBD1424B3E4A1A60424BEA
:100240008A221A70A3F5805324225A70A0221A70B1
:100250009A799207FCD59A79D406FCD43B4A9379D3
:1002600003F00C03082B394BF9D103221A714622F3
:100270005A719A799006FCD5344A9179334B4906E4
:10028000FBD5334A4FF08271116009215160202261
:100290001A709A7902F00C020C2AFAD12D4B2E4AD0
:1002A0001A602E4B2E4A1A6000225A60072243F829
:1002B000042C2C4AC3F80C2D62B604F039FC154B03
:1002C0001B68DA0705D5284804F080F9274B284A2F
:1002D0001A60284B1B785B0609D5244C244B2268F6
:1002E0009A4204D1204804F071F9002323600AF0F7
:1002F000EDF904F02BF803F0EBFFFEE70E200540CC
:1003000030800440823F04000100002B88ED00E0B3
:1003100010D0034014D0034002D0074000E0074053
:100320009412FF1F70B90000F806FF1F9412FF1F00
:100330008C1DFF1F0002FF1F0000000000E400E012
:1003400056E400E008ED00E00050064000400640A2
:100350004480044004800440C010050014E000E024
:10036000BFD4010000002020D7B0795B1CE003401F
:10037000A5C3945A00F00740FFFFFFFFFFFFFFFFF8
:10038000FFFFFFFFFFFFFFFFFFFFFFFFFFFFFFFF7D
:10039000FFFFFFFFFFFFFFFFFFFFFFFFFFFFFFFF6D
:1003A000FFFFFFFFFFFFFFFFFFFFFFFFFFFFFFFF5D
:1003B000FFFFFFFFFFFFFFFFFFFFFFFFFFFFFFFF4D
:1003C000FFFFFFFFFFFFFFFFFFFFFFFFFFFFFFFF3D
:1003D000FFFFFFFFFFFFFFFFFFFFFFFFFFFFFFFF2D
:1003E000FFFFFFFFFFFFFFFFFFFFFFFFFFFFFFFF1D
:1003F000FFFFFFFFFFFFFFFFFFFFFFFFFFFFFFFF0D
:10040000FFFFFFFFFFFFFFFFFFFFFFFFDEF9FFFF23
:1004100010B5054C237833B9044B13B10448AFF33E
:1004200000800123237010BD9412FF1F0000000004
:1004300074B90000084B10B51BB108490848AFF368
:1004400000800848036803B910BD074B002BFBD0A0
:10045000BDE81040184700BF000000009812FF1FC1
:1004600074B900009412FF1F00000000704700BF25
:1004700010B5044603F0A2FF204610BD38B5002099
:100480002DED048B00211B4DDFED1B8ADFED1B9A48
:100490009FED1B9A0024B6EE008A11E007EE904A09
:1004A000B8EEE77AC7EE297A67EE897A17EE900AF6
:1004B00009F05EFD41EC100B08F022FA51EC100B34
:1004C0000AF0A2F807EE100AF0EE487AE7EE087A92
:1004D0000134F42C67EEA87AFDEEE77A17EE903A35
:1004E00045F8043FDAD1BDEC048B064B01221A70AB
:1004F00038BD00BFAC12FF1F00007F4300007443F3
:10050000DB0FC9408016FF1F214B10B41A68136817
:10051000506819780478507A137A044201EA03018A
:100520001BD0937A03F0030309B143F0040343F0B3
:1005300008039910013B91720D2B0BD8DFE803F0F3
:1005400021071B070A152121150A071B0721D3685C
:10055000013BD3605DF8044B7047937A03F00303CB
:100560000029E6D043F00403E3E7D3685DF8044BC9
:10057000023BD3607047D3685DF8044B0233D3600D
:100580007047D3685DF8044B0133D360704700BFF8
:100590000817FF1F214B10B45A6813685068197868
:1005A0000478507A137A044201EA03011BD0937A4B
:1005B00003F0030309B143F0040343F00803991067
:1005C000013B91720D2B0BD8DFE803F021071B07CD
:1005D0000A152121150A071B0721D368013BD360A7
:1005E0005DF8044B7047937A03F003030029E6D0CB
:1005F00043F00403E3E7D3685DF8044B023BD360A8
:100600007047D3685DF8044B0233D3607047D368FA
:100610005DF8044B0133D360704700BF0817FF1F1C
:10062000214B10B49A681368506819780478507A8E
:10063000137A044201EA03011BD0937A03F0030307
:1006400009B143F0040343F008039910013B917290
:100650000D2B0BD8DFE803F021071B070A1521211A
:10066000150A071B0721D368013BD3605DF8044BD3
:100670007047937A03F003030029E6D043F00403A4
:10068000E3E7D3685DF8044B023BD3607047D3685F
:100690005DF8044B0233D3607047D3685DF8044BB8
:1006A0000133D360704700BF0817FF1F214B10B400
:1006B000DA681368506819780478507A137A04421B
:1006C00001EA03011BD0937A03F0030309B143F05D
:1006D000040343F008039910013B91720D2B0BD8D2
:1006E000DFE803F021071B070A152121150A071B64
:1006F0000721D368013BD3605DF8044B7047937AC0
:1007000003F003030029E6D043F00403E3E7D368D2
:100710005DF8044B023BD3607047D3685DF8044B2F
:100720000233D3607047D3685DF8044B0133D36064
:10073000704700BF0817FF1F214B10B41A691368D8
:10074000506819780478507A137A044201EA030158
:100750001BD0937A03F0030309B143F0040343F081
:1007600008039910013B91720D2B0BD8DFE803F0C1
:1007700021071B070A152121150A071B0721D3682A
:10078000013BD3605DF8044B7047937A03F0030399
:100790000029E6D043F00403E3E7D3685DF8044B97
:1007A000023BD3607047D3685DF8044B0233D360DB
:1007B0007047D3685DF8044B0133D360704700BFC6
:1007C0000817FF1F214B10B45A6913685068197835
:1007D0000478507A137A044201EA03011BD0937A19
:1007E00003F0030309B143F0040343F00803991035
:1007F000013B91720D2B0BD8DFE803F021071B079B
:100800000A152121150A071B0721D368013BD36074
:100810005DF8044B7047937A03F003030029E6D098
:1008200043F00403E3E7D3685DF8044B023BD36075
:100830007047D3685DF8044B0233D3607047D368C8
:100840005DF8044B0133D360704700BF0817FF1FEA
:10085000214B10B49A691368506819780478507A5B
:10086000137A044201EA03011BD0937A03F00303D5
:1008700009B143F0040343F008039910013B91725E
:100880000D2B0BD8DFE803F021071B070A152121E8
:10089000150A071B0721D368013BD3605DF8044BA1
:1008A0007047937A03F003030029E6D043F0040372
:1008B000E3E7D3685DF8044B023BD3607047D3682D
:1008C0005DF8044B0233D3607047D3685DF8044B86
:1008D0000133D360704700BF0817FF1F214B10B4CE
:1008E000DA691368506819780478507A137A0442E8
:1008F00001EA03011BD0937A03F0030309B143F02B
:10090000040343F008039910013B91720D2B0BD89F
:10091000DFE803F021071B070A152121150A071B31
:100920000721D368013BD3605DF8044B7047937A8D
:1009300003F003030029E6D043F00403E3E7D368A0
:100940005DF8044B023BD3607047D3685DF8044BFD
:100950000233D3607047D3685DF8044B0133D36032
:10096000704700BF0817FF1F214B10B41A6A1368A5
:10097000506819780478507A137A044201EA030126
:100980001BD0937A03F0030309B143F0040343F04F
:1009900008039910013B91720D2B0BD8DFE803F08F
:1009A00021071B070A152121150A071B0721D368F8
:1009B000013BD3605DF8044B7047937A03F0030367
:1009C0000029E6D043F00403E3E7D3685DF8044B65
:1009D000023BD3607047D3685DF8044B0233D360A9
:1009E0007047D3685DF8044B0133D360704700BF94
:1009F0000817FF1F214B10B45A6A13685068197802
:100A00000478507A137A044201EA03011BD0937AE6
:100A100003F0030309B143F0040343F00803991002
:100A2000013B91720D2B0BD8DFE803F021071B0768
:100A30000A152121150A071B0721D368013BD36042
:100A40005DF8044B7047937A03F003030029E6D066
:100A500043F00403E3E7D3685DF8044B023BD36043
:100A60007047D3685DF8044B0233D3607047D36896
:100A70005DF8044B0133D360704700BF0817FF1FB8
:100A8000214B10B49A6A1368506819780478507A28
:100A9000137A044201EA03011BD0937A03F00303A3
:100AA00009B143F0040343F008039910013B91722C
:100AB0000D2B0BD8DFE803F021071B070A152121B6
:100AC000150A071B0721D368013BD3605DF8044B6F
:100AD0007047937A03F003030029E6D043F0040340
:100AE000E3E7D3685DF8044B023BD3607047D368FB
:100AF0005DF8044B0233D3607047D3685DF8044B54
:100B00000133D360704700BF0817FF1F214B10B49B
:100B1000DA6A1368506819780478507A137A0442B4
:100B200001EA03011BD0937A03F0030309B143F0F8
:100B3000040343F008039910013B91720D2B0BD86D
:100B4000DFE803F021071B070A152121150A071BFF
:100B50000721D368013BD3605DF8044B7047937A5B
:100B600003F003030029E6D043F00403E3E7D3686E
:100B70005DF8044B023BD3607047D3685DF8044BCB
:100B80000233D3607047D3685DF8044B0133D36000
:100B9000704700BF0817FF1F214B10B41A6B136872
:100BA000506819780478507A137A044201EA0301F4
:100BB0001BD0937A03F0030309B143F0040343F01D
:100BC00008039910013B91720D2B0BD8DFE803F05D
:100BD00021071B070A152121150A071B0721D368C6
:100BE000013BD3605DF8044B7047937A03F0030335
:100BF0000029E6D043F00403E3E7D3685DF8044B33
:100C0000023BD3607047D3685DF8044B0233D36076
:100C10007047D3685DF8044B0133D360704700BF61
:100C20000817FF1F214B10B45A6B136850681978CE
:100C30000478507A137A044201EA03011BD0937AB4
:100C400003F0030309B143F0040343F008039910D0
:100C5000013B91720D2B0BD8DFE803F021071B0736
:100C60000A152121150A071B0721D368013BD36010
:100C70005DF8044B7047937A03F003030029E6D034
:100C800043F00403E3E7D3685DF8044B023BD36011
:100C90007047D3685DF8044B0233D3607047D36864
:100CA0005DF8044B0133D360704700BF0817FF1F86
:100CB000214B10B49A6B1368506819780478507AF5
:100CC000137A044201EA03011BD0937A03F0030371
:100CD00009B143F0040343F008039910013B9172FA
:100CE0000D2B0BD8DFE803F021071B070A15212184
:100CF000150A071B0721D368013BD3605DF8044B3D
:100D00007047937A03F003030029E6D043F004030D
:100D1000E3E7D3685DF8044B023BD3607047D368C8
:100D20005DF8044B0233D3607047D3685DF8044B21
:100D30000133D360704700BF0817FF1F214B10B469
:100D4000DA6B1368506819780478507A137A044281
:100D500001EA03011BD0937A03F0030309B143F0C6
:100D6000040343F008039910013B91720D2B0BD83B
:100D7000DFE803F021071B070A152121150A071BCD
:100D80000721D368013BD3605DF8044B7047937A29
:100D900003F003030029E6D043F00403E3E7D3683C
:100DA0005DF8044B023BD3607047D3685DF8044B99
:100DB0000233D3607047D3685DF8044B0133D360CE
:100DC000704700BF0817FF1F214B10B41A6C13683F
:100DD000506819780478507A137A044201EA0301C2
:100DE0001BD0937A03F0030309B143F0040343F0EB
:100DF00008039910013B91720D2B0BD8DFE803F02B
:100E000021071B070A152121150A071B0721D36893
:100E1000013BD3605DF8044B7047937A03F0030302
:100E20000029E6D043F00403E3E7D3685DF8044B00
:100E3000023BD3607047D3685DF8044B0233D36044
:100E40007047D3685DF8044B0133D360704700BF2F
:100E50000817FF1F214B10B45A6C1368506819789B
:100E60000478507A137A044201EA03011BD0937A82
:100E700003F0030309B143F0040343F0080399109E
:100E8000013B91720D2B0BD8DFE803F021071B0704
:100E90000A152121150A071B0721D368013BD360DE
:100EA0005DF8044B7047937A03F003030029E6D002
:100EB00043F00403E3E7D3685DF8044B023BD360DF
:100EC0007047D3685DF8044B0233D3607047D36832
:100ED0005DF8044B0133D360704700BF0817FF1F54
:100EE000214B10B49A6C1368506819780478507AC2
:100EF000137A044201EA03011BD0937A03F003033F
:100F000009B143F0040343F008039910013B9172C7
:100F10000D2B0BD8DFE803F021071B070A15212151
:100F2000150A071B0721D368013BD3605DF8044B0A
:100F30007047937A03F003030029E6D043F00403DB
:100F4000E3E7D3685DF8044B023BD3607047D36896
:100F50005DF8044B0233D3607047D3685DF8044BEF
:100F60000133D360704700BF0817FF1F214B10B437
:100F7000DA6C1368506819780478507A137A04424E
:100F800001EA03011BD0937A03F0030309B143F094
:100F9000040343F008039910013B91720D2B0BD809
:100FA000DFE803F021071B070A152121150A071B9B
:100FB0000721D368013BD3605DF8044B7047937AF7
:100FC00003F003030029E6D043F00403E3E7D3680A
:100FD0005DF8044B023BD3607047D3685DF8044B67
:100FE0000233D3607047D3685DF8044B0133D3609C
:100FF000704700BF0817FF1F214B10B41A6D13680C
:10100000506819780478507A137A044201EA03018F
:101010001BD0937A03F0030309B143F0040343F0B8
:1010200008039910013B91720D2B0BD8DFE803F0F8
:1010300021071B070A152121150A071B0721D36861
:10104000013BD3605DF8044B7047937A03F00303D0
:101050000029E6D043F00403E3E7D3685DF8044BCE
:10106000023BD3607047D3685DF8044B0233D36012
:101070007047D3685DF8044B0133D360704700BFFD
:101080000817FF1F214B10B45A6D13685068197868
:101090000478507A137A044201EA03011BD0937A50
:1010A00003F0030309B143F0040343F0080399106C
:1010B000013B91720D2B0BD8DFE803F021071B07D2
:1010C0000A152121150A071B0721D368013BD360AC
:1010D0005DF8044B7047937A03F003030029E6D0D0
:1010E00043F00403E3E7D3685DF8044B023BD360AD
:1010F0007047D3685DF8044B0233D3607047D36800
:101100005DF8044B0133D360704700BF0817FF1F21
:10111000214B10B49A6D1368506819780478507A8E
:10112000137A044201EA03011BD0937A03F003030C
:1011300009B143F0040343F008039910013B917295
:101140000D2B0BD8DFE803F021071B070A1521211F
:10115000150A071B0721D368013BD3605DF8044BD8
:101160007047937A03F003030029E6D043F00403A9
:10117000E3E7D3685DF8044B023BD3607047D36864
:101180005DF8044B0233D3607047D3685DF8044BBD
:101190000133D360704700BF0817FF1F214B10B405
:1011A000DA6D1368506819780478507A137A04421B
:1011B00001EA03011BD0937A03F0030309B143F062
:1011C000040343F008039910013B91720D2B0BD8D7
:1011D000DFE803F021071B070A152121150A071B69
:1011E0000721D368013BD3605DF8044B7047937AC5
:1011F00003F003030029E6D043F00403E3E7D368D8
:101200005DF8044B023BD3607047D3685DF8044B34
:101210000233D3607047D3685DF8044B0133D36069
:10122000704700BF0817FF1F214B10B41A6E1368D8
:10123000506819780478507A137A044201EA03015D
:101240001BD0937A03F0030309B143F0040343F086
:1012500008039910013B91720D2B0BD8DFE803F0C6
:1012600021071B070A152121150A071B0721D3682F
:10127000013BD3605DF8044B7047937A03F003039E
:101280000029E6D043F00403E3E7D3685DF8044B9C
:10129000023BD3607047D3685DF8044B0233D360E0
:1012A0007047D3685DF8044B0133D360704700BFCB
:1012B0000817FF1F214B10B45A6E13685068197835
:1012C0000478507A137A044201EA03011BD0937A1E
:1012D00003F0030309B143F0040343F0080399103A
:1012E000013B91720D2B0BD8DFE803F021071B07A0
:1012F0000A152121150A071B0721D368013BD3607A
:101300005DF8044B7047937A03F003030029E6D09D
:1013100043F00403E3E7D3685DF8044B023BD3607A
:101320007047D3685DF8044B0233D3607047D368CD
:101330005DF8044B0133D360704700BF0817FF1FEF
:10134000214B10B49A6E1368506819780478507A5B
:10135000137A044201EA03011BD0937A03F00303DA
:1013600009B143F0040343F008039910013B917263
:101370000D2B0BD8DFE803F021071B070A152121ED
:10138000150A071B0721D368013BD3605DF8044BA6
:101390007047937A03F003030029E6D043F0040377
:1013A000E3E7D3685DF8044B023BD3607047D36832
:1013B0005DF8044B0233D3607047D3685DF8044B8B
:1013C0000133D360704700BF0817FF1F214B10B4D3
:1013D000DA6E1368506819780478507A137A0442E8
:1013E00001EA03011BD0937A03F0030309B143F030
:1013F000040343F008039910013B91720D2B0BD8A5
:10140000DFE803F021071B070A152121150A071B36
:101410000721D368013BD3605DF8044B7047937A92
:1014200003F003030029E6D043F00403E3E7D368A5
:101430005DF8044B023BD3607047D3685DF8044B02
:101440000233D3607047D3685DF8044B0133D36037
:10145000704700BF0817FF1F214B10B41A6F1368A5
:10146000506819780478507A137A044201EA03012B
:101470001BD0937A03F0030309B143F0040343F054
:1014800008039910013B91720D2B0BD8DFE803F094
:1014900021071B070A152121150A071B0721D368FD
:1014A000013BD3605DF8044B7047937A03F003036C
:1014B0000029E6D043F00403E3E7D3685DF8044B6A
:1014C000023BD3607047D3685DF8044B0233D360AE
:1014D0007047D3685DF8044B0133D360704700BF99
:1014E0000817FF1F214B10B45A6F13685068197802
:1014F0000478507A137A044201EA03011BD0937AEC
:1015000003F0030309B143F0040343F00803991007
:10151000013B91720D2B0BD8DFE803F021071B076D
:101520000A152121150A071B0721D368013BD36047
:101530005DF8044B7047937A03F003030029E6D06B
:1015400043F00403E3E7D3685DF8044B023BD36048
:101550007047D3685DF8044B0233D3607047D3689B
:101560005DF8044B0133D360704700BF0817FF1FBD
:10157000214B10B49A6F1368506819780478507A28
:10158000137A044201EA03011BD0937A03F00303A8
:1015900009B143F0040343F008039910013B917231
:1015A0000D2B0BD8DFE803F021071B070A152121BB
:1015B000150A071B0721D368013BD3605DF8044B74
:1015C0007047937A03F003030029E6D043F0040345
:1015D000E3E7D3685DF8044B023BD3607047D36800
:1015E0005DF8044B0233D3607047D3685DF8044B59
:1015F0000133D360704700BF0817FF1F214B10B4A1
:10160000DA6F1368506819780478507A137A0442B4
:1016100001EA03011BD0937A03F0030309B143F0FD
:10162000040343F008039910013B91720D2B0BD872
:10163000DFE803F021071B070A152121150A071B04
:101640000721D368013BD3605DF8044B7047937A60
:1016500003F003030029E6D043F00403E3E7D36873
:101660005DF8044B023BD3607047D3685DF8044BD0
:101670000233D3607047D3685DF8044B0133D36005
:10168000704700BF0817FF1F214B10B4D3F880200C
:101690001368506819780478507A137A044201EA82
:1016A00003011BD0937A03F0030309B143F0040351
:1016B00043F008039910013B91720D2B0BD8DFE822
:1016C00003F021071B070A152121150A071B072113
:1016D000D368013BD3605DF8044B7047937A03F005
:1016E00003030029E6D043F00403E3E7D3685DF881
:1016F000044B023BD3607047D3685DF8044B023360
:10170000D3607047D3685DF8044B0133D3607047F2
:101710000817FF1F214B10B4D3F8842013685068BA
:1017200019780478507A137A044201EA03011BD035
:10173000937A03F0030309B143F0040343F0080371
:101740009910013B91720D2B0BD8DFE803F02107B4
:101750001B070A152121150A071B0721D368013B26
:10176000D3605DF8044B7047937A03F003030029BC
:10177000E6D043F00403E3E7D3685DF8044B023B93
:10178000D3607047D3685DF8044B0233D360704771
:10179000D3685DF8044B0133D36070470817FF1F0F
:1017A000214B10B4D3F88820136850681978047856
:1017B000507A137A044201EA03011BD0937A03F0B2
:1017C000030309B143F0040343F008039910013BFC
:1017D00091720D2B0BD8DFE803F021071B070A15C8
:1017E0002121150A071B0721D368013BD3605DF84F
:1017F000044B7047937A03F003030029E6D043F0CB
:101800000403E3E7D3685DF8044B023BD360704701
:10181000D3685DF8044B0233D3607047D3685DF83A
:10182000044B0133D36070470817FF1F214B10B4DE
:10183000D3F88C201368506819780478507A137A9A
:10184000044201EA03011BD0937A03F0030309B1B8
:1018500043F0040343F008039910013B91720D2BF0
:101860000BD8DFE803F021071B070A152121150A11
:10187000071B0721D368013BD3605DF8044B704719
:10188000937A03F003030029E6D043F00403E3E76F
:10189000D3685DF8044B023BD3607047D3685DF8B2
:1018A000044B0233D3607047D3685DF8044B0133B7
:1018B000D36070470817FF1F214B10B4D3F8902056
:1018C0001368506819780478507A137A044201EA50
:1018D00003011BD0937A03F0030309B143F004031F
:1018E00043F008039910013B91720D2B0BD8DFE8F0
:1018F00003F021071B070A152121150A071B0721E1
:10190000D368013BD3605DF8044B7047937A03F0D2
:1019100003030029E6D043F00403E3E7D3685DF84E
:10192000044B023BD3607047D3685DF8044B02332D
:10193000D3607047D3685DF8044B0133D3607047C0
:101940000817FF1F214B10B4D3F894201368506878
:1019500019780478507A137A044201EA03011BD003
:10196000937A03F0030309B143F0040343F008033F
:101970009910013B91720D2B0BD8DFE803F0210782
:101980001B070A152121150A071B0721D368013BF4
:10199000D3605DF8044B7047937A03F0030300298A
:1019A000E6D043F00403E3E7D3685DF8044B023B61
:1019B000D3607047D3685DF8044B0233D36070473F
:1019C000D3685DF8044B0133D36070470817FF1FDD
:1019D000214B10B4D3F89820136850681978047814
:1019E000507A137A044201EA03011BD0937A03F080
:1019F000030309B143F0040343F008039910013BCA
:101A000091720D2B0BD8DFE803F021071B070A1595
:101A10002121150A071B0721D368013BD3605DF81C
:101A2000044B7047937A03F003030029E6D043F098
:101A30000403E3E7D3685DF8044B023BD3607047CF
:101A4000D3685DF8044B0233D3607047D3685DF808
:101A5000044B0133D36070470817FF1F214B10B4AC
:101A6000D3F89C201368506819780478507A137A58
:101A7000044201EA03011BD0937A03F0030309B186
:101A800043F0040343F008039910013B91720D2BBE
:101A90000BD8DFE803F021071B070A152121150ADF
:101AA000071B0721D368013BD3605DF8044B7047E7
:101AB000937A03F003030029E6D043F00403E3E73D
:101AC000D3685DF8044B023BD3607047D3685DF880
:101AD000044B0233D3607047D3685DF8044B013385
:101AE000D36070470817FF1F214B10B4D3F8A02014
:101AF0001368506819780478507A137A044201EA1E
:101B000003011BD0937A03F0030309B143F00403EC
:101B100043F008039910013B91720D2B0BD8DFE8BD
:101B200003F021071B070A152121150A071B0721AE
:101B3000D368013BD3605DF8044B7047937A03F0A0
:101B400003030029E6D043F00403E3E7D3685DF81C
:101B5000044B023BD3607047D3685DF8044B0233FB
:101B6000D3607047D3685DF8044B0133D36070478E
:101B70000817FF1F214B10B4D3F8A4201368506836
:101B800019780478507A137A044201EA03011BD0D1
:101B9000937A03F0030309B143F0040343F008030D
:101BA0009910013B91720D2B0BD8DFE803F0210750
:101BB0001B070A152121150A071B0721D368013BC2
:101BC000D3605DF8044B7047937A03F00303002958
:101BD000E6D043F00403E3E7D3685DF8044B023B2F
:101BE000D3607047D3685DF8044B0233D36070470D
:101BF000D3685DF8044B0133D36070470817FF1FAB
:101C0000214B10B4D3F8A8201368506819780478D1
:101C1000507A137A044201EA03011BD0937A03F04D
:101C2000030309B143F0040343F008039910013B97
:101C300091720D2B0BD8DFE803F021071B070A1563
:101C40002121150A071B0721D368013BD3605DF8EA
:101C5000044B7047937A03F003030029E6D043F066
:101C60000403E3E7D3685DF8044B023BD36070479D
:101C7000D3685DF8044B0233D3607047D3685DF8D6
:101C8000044B0133D36070470817FF1F214B10B47A
:101C9000D3F8AC201368506819780478507A137A16
:101CA000044201EA03011BD0937A03F0030309B154
:101CB00043F0040343F008039910013B91720D2B8C
:101CC0000BD8DFE803F021071B070A152121150AAD
:101CD000071B0721D368013BD3605DF8044B7047B5
:101CE000937A03F003030029E6D043F00403E3E70B
:101CF000D3685DF8044B023BD3607047D3685DF84E
:101D0000044B0233D3607047D3685DF8044B013352
:101D1000D36070470817FF1F214B10B4D3F8B020D1
:101D20001368506819780478507A137A044201EAEB
:101D300003011BD0937A03F0030309B143F00403BA
:101D400043F008039910013B91720D2B0BD8DFE88B
:101D500003F021071B070A152121150A071B07217C
:101D6000D368013BD3605DF8044B7047937A03F06E
:101D700003030029E6D043F00403E3E7D3685DF8EA
:101D8000044B023BD3607047D3685DF8044B0233C9
:101D9000D3607047D3685DF8044B0133D36070475C
:101DA0000817FF1F214B10B4D3F8B42013685068F4
:101DB00019780478507A137A044201EA03011BD09F
:101DC000937A03F0030309B143F0040343F00803DB
:101DD0009910013B91720D2B0BD8DFE803F021071E
:101DE0001B070A152121150A071B0721D368013B90
:101DF000D3605DF8044B7047937A03F00303002926
:101E0000E6D043F00403E3E7D3685DF8044B023BFC
:101E1000D3607047D3685DF8044B0233D3607047DA
:101E2000D3685DF8044B0133D36070470817FF1F78
:101E3000214B10B4D3F8B82013685068197804788F
:101E4000507A137A044201EA03011BD0937A03F01B
:101E5000030309B143F0040343F008039910013B65
:101E600091720D2B0BD8DFE803F021071B070A1531
:101E70002121150A071B0721D368013BD3605DF8B8
:101E8000044B7047937A03F003030029E6D043F034
:101E90000403E3E7D3685DF8044B023BD36070476B
:101EA000D3685DF8044B0233D3607047D3685DF8A4
:101EB000044B0133D36070470817FF1F214B10B448
:101EC000D3F8BC201368506819780478507A137AD4
:101ED000044201EA03011BD0937A03F0030309B122
:101EE00043F0040343F008039910013B91720D2B5A
:101EF0000BD8DFE803F021071B070A152121150A7B
:101F0000071B0721D368013BD3605DF8044B704782
:101F1000937A03F003030029E6D043F00403E3E7D8
:101F2000D3685DF8044B023BD3607047D3685DF81B
:101F3000044B0233D3607047D3685DF8044B013320
:101F4000D36070470817FF1F214B10B4D3F8C0208F
:101F50001368506819780478507A137A044201EAB9
:101F600003011BD0937A03F0030309B143F0040388
:101F700043F008039910013B91720D2B0BD8DFE859
:101F800003F021071B070A152121150A071B07214A
:101F9000D368013BD3605DF8044B7047937A03F03C
:101FA00003030029E6D043F00403E3E7D3685DF8B8
:101FB000044B023BD3607047D3685DF8044B023397
:101FC000D3607047D3685DF8044B0133D36070472A
:101FD0000817FF1F214B10B4D3F8C42013685068B2
:101FE00019780478507A137A044201EA03011BD06D
:101FF000937A03F0030309B143F0040343F00803A9
:102000009910013B91720D2B0BD8DFE803F02107EB
:102010001B070A152121150A071B0721D368013B5D
:10202000D3605DF8044B7047937A03F003030029F3
:10203000E6D043F00403E3E7D3685DF8044B023BCA
:10204000D3607047D3685DF8044B0233D3607047A8
:10205000D3685DF8044B0133D36070470817FF1F46
:10206000214B10B4D3F8C82013685068197804784D
:10207000507A137A044201EA03011BD0937A03F0E9
:10208000030309B143F0040343F008039910013B33
:1020900091720D2B0BD8DFE803F021071B070A15FF
:1020A0002121150A071B0721D368013BD3605DF886
:1020B000044B7047937A03F003030029E6D043F002
:1020C0000403E3E7D3685DF8044B023BD360704739
:1020D000D3685DF8044B0233D3607047D3685DF872
:1020E000044B0133D36070470817FF1F214B10B416
:1020F000D3F8CC201368506819780478507A137A92
:10210000044201EA03011BD0937A03F0030309B1EF
:1021100043F0040343F008039910013B91720D2B27
:102120000BD8DFE803F021071B070A152121150A48
:10213000071B0721D368013BD3605DF8044B704750
:10214000937A03F003030029E6D043F00403E3E7A6
:10215000D3685DF8044B023BD3607047D3685DF8E9
:10216000044B0233D3607047D3685DF8044B0133EE
:10217000D36070470817FF1F214B10B4D3F8D0204D
:102180001368506819780478507A137A044201EA87
:1021900003011BD0937A03F0030309B143F0040356
:1021A00043F008039910013B91720D2B0BD8DFE827
:1021B00003F021071B070A152121150A071B072118
:1021C000D368013BD3605DF8044B7047937A03F00A
:1021D00003030029E6D043F00403E3E7D3685DF886
:1021E000044B023BD3607047D3685DF8044B023365
:1021F000D3607047D3685DF8044B0133D3607047F8
:102200000817FF1F214B10B4D3F8D420136850686F
:1022100019780478507A137A044201EA03011BD03A
:10222000937A03F0030309B143F0040343F0080376
:102230009910013B91720D2B0BD8DFE803F02107B9
:102240001B070A152121150A071B0721D368013B2B
:10225000D3605DF8044B7047937A03F003030029C1
:10226000E6D043F00403E3E7D3685DF8044B023B98
:10227000D3607047D3685DF8044B0233D360704776
:10228000D3685DF8044B0133D36070470817FF1F14
:10229000214B10B4D3F8D82013685068197804780B
:1022A000507A137A044201EA03011BD0937A03F0B7
:1022B000030309B143F0040343F008039910013B01
:1022C00091720D2B0BD8DFE803F021071B070A15CD
:1022D0002121150A071B0721D368013BD3605DF854
:1022E000044B7047937A03F003030029E6D043F0D0
:1022F0000403E3E7D3685DF8044B023BD360704707
:10230000D3685DF8044B0233D3607047D3685DF83F
:10231000044B0133D36070470817FF1F214B10B4E3
:10232000D3F8DC201368506819780478507A137A4F
:10233000044201EA03011BD0937A03F0030309B1BD
:1023400043F0040343F008039910013B91720D2BF5
:102350000BD8DFE803F021071B070A152121150A16
:10236000071B0721D368013BD3605DF8044B70471E
:10237000937A03F003030029E6D043F00403E3E774
:10238000D3685DF8044B023BD3607047D3685DF8B7
:10239000044B0233D3607047D3685DF8044B0133BC
:1023A000D36070470817FF1F214B10B4D3F8E0200B
:1023B0001368506819780478507A137A044201EA55
:1023C00003011BD0937A03F0030309B143F0040324
:1023D00043F008039910013B91720D2B0BD8DFE8F5
:1023E00003F021071B070A152121150A071B0721E6
:1023F000D368013BD3605DF8044B7047937A03F0D8
:1024000003030029E6D043F00403E3E7D3685DF853
:10241000044B023BD3607047D3685DF8044B023332
:10242000D3607047D3685DF8044B0133D3607047C5
:102430000817FF1F214B10B4D3F8E420136850682D
:1024400019780478507A137A044201EA03011BD008
:10245000937A03F0030309B143F0040343F0080344
:102460009910013B91720D2B0BD8DFE803F0210787
:102470001B070A152121150A071B0721D368013BF9
:10248000D3605DF8044B7047937A03F0030300298F
:10249000E6D043F00403E3E7D3685DF8044B023B66
:1024A000D3607047D3685DF8044B0233D360704744
:1024B000D3685DF8044B0133D36070470817FF1FE2
:1024C000214B10B4D3F8E8201368506819780478C9
:1024D000507A137A044201EA03011BD0937A03F085
:1024E000030309B143F0040343F008039910013BCF
:1024F00091720D2B0BD8DFE803F021071B070A159B
:102500002121150A071B0721D368013BD3605DF821
:10251000044B7047937A03F003030029E6D043F09D
:102520000403E3E7D3685DF8044B023BD3607047D4
:10253000D3685DF8044B0233D3607047D3685DF80D
:10254000044B0133D36070470817FF1F214B10B4B1
:10255000D3F8EC201368506819780478507A137A0D
:10256000044201EA03011BD0937A03F0030309B18B
:1025700043F0040343F008039910013B91720D2BC3
:102580000BD8DFE803F021071B070A152121150AE4
:10259000071B0721D368013BD3605DF8044B7047EC
:1025A000937A03F003030029E6D043F00403E3E742
:1025B000D3685DF8044B023BD3607047D3685DF885
:1025C000044B0233D3607047D3685DF8044B01338A
:1025D000D36070470817FF1F90ED0D7AD0ED0A7A8F
:1025E000DFED335AB5EEC07AF7EE006AF1EE10FA7D
:1025F00036EEE76AD4BFF1EE476AF0EE476A86EE40
:10260000A57A10B5F7EE006AB4EEE67AF1EE10FAAC
:1026100058BFB0EE667AE7EE067AB5EEC00AF1EE84
:1026200010FA2DED028BB0EE678A29D4DFED216A16
:102630009FED217A214CC0EE267AF42167EE877A4D
:10264000FDEEE77A17EE903A84FB0324DA17C2EB2B
:10265000A41401FB14348C4202D9194801F0AEFBDA
:10266000184B53F8243007EE903AB8EEE77A67EE4D
:10267000087ABDEC028BFDEEE77A17EE900A10BDEA
:10268000DFED0C6A9FED107AD4BFB1EE406AB0EE78
:10269000406AC6EE267AF7EE006A77EEA67AFDEE7D
:1026A000E77AF8EEE77A77EEA77AA7EE870ABDE732
:1026B000920A863EDB0FC940000074433FC52543A4
:1026C00044B10000B012FF1FDB0F4940F8B590ED98
:1026D0000B0A04460F4616461D46FFF77DFF94ED94
:1026E0000B0ADFED0A7A386030EE270A2046FFF742
:1026F00073FF94ED0B0ADFED067A306030EE270AA7
:102700002046FFF769FF2860F8BD00BF920A064027
:10271000920A864030B5154A154D117805600023A0
:1027200000224FF4FA7483B0C46542608260C260D4
:102730000261426182618264C26480F85020426515
:1027400080F86420C361036243628362C3620363EF
:1027500043638363C363036443648365036619B996
:102760000190FDF78BFE019803B030BD8016FF1F6E
:102770003CB1000010B504462DED028B04989FED8E
:10278000188AE360A26061602061082002F0B4F85A
:10279000B0EE480A207A02F0BDF8B0EE480A207B7D
:1027A00002F0B8F8B0EE480A207C02F0B3F8207AC4
:1027B000012102F047F9207A012102F043F9207A41
:1027C000012102F03FF92079012102F03BF9207943
:1027D000002102F031F9BDEC028B0023E36210BD51
:1027E00000409C4607EE903AF8EEE77AF8B5826131
:1027F000C0ED077A06464161142001F0DDFD357D0C
:10280000377E04460221284602F01CF93846022190
:1028100002F018F9984A994B52F8351052F83720BF
:1028200001F50070206002F5007060600020E0603B
:10283000012020726072013BFDD191F8003292F8C4
:1028400000220340D20744BF43F00203DBB2A3726D
:102850003B2D00F20386DFE815F0F405EB05E105FA
:10286000D705CD05C305B905AF05A5059B059105A0
:1028700087057D05730569055F0555054B05410510
:1028800037052D05230519050F050505FB04F10482
:10289000E704DD04D304C904BF04B404A9049E04FE
:1028A000930488047D0428041E0414040A0400040C
:1028B000F603EC03E203D803CE03C403BA03B00368
:1028C000A6039C03920388037E0374036A036003D8
:1028D0003C006B4B6B49C3F8EC4004223B2001F0F9
:1028E000F9FD012525743B2F00F2B585DFE817F0CF
:1028F0000B030203F802EE02E402DA02D002C6027F
:10290000BC02B202A8029E0294028A028002320233
:1029100028021E0214020A020002F601EC01E20182
:10292000D801CE01C401BA01B001A6019C019201F7
:1029300087017C01710166015B01500145013A018B
:102940002F01240119010E010301F800ED00E2003E
:10295000B800AD00A20097008C00810076006B00EB
:10296000600055004A003C00454B4649C3F8EC4026
:1029700004223B2001F0AEFD257C01273D44257457
:102980007465F8BD3E4B4049C3F8E84004223A2044
:1029900001F0A0FD0127257CF0E7394B3B49C3F846
:1029A000E4400422392001F095FD0127257CE5E76C
:1029B000334B3749C3F8E0400422382001F08AFD48
:1029C0000127257CDAE72E4B3249C3F8DC4004228C
:1029D000372001F07FFD0127257CCFE7284B2E49CA
:1029E000C3F8D8400422362001F074FD0127257C6D
:1029F000C4E7234B2949C3F8D4400422352001F011
:102A000069FD0127257CB9E71D4B2549C3F8D04056
:102A10000422342001F05EFD0127257CAEE7184B2F
:102A20002049C3F8CC400422332001F053FD012794
:102A3000257CA3E7124B1C49C3F8C840042232206E
:102A400001F048FD0127257C98E70D4B1749C3F895
:102A5000C4400422312001F03DFD0127257C8DE793
:102A6000074B1349C3F8C0400422302001F032FD67
:102A70000127257C82E700BF04B3000080380100F5
:102A80000817FF1F4D250000C12400003524000059
:102A9000A92300001D230000912200000522000050
:102AA00079210000ED20000061200000D51F00000A
:102AB000491F0000AC4BAD49C3F8BC4004222F2095
:102AC00001F008FD0127257C58E7A74BA849C3F86A
:102AD000B84004222E2001F0FDFC0127257C4DE7A3
:102AE000A14BA449C3F8B44004222D2001F0F2FC0C
:102AF0000127257C42E79C4B9F49C3F8B040042244
:102B00002C2001F0E7FC0127257C37E7964B9B49F9
:102B1000C3F8AC4004222B2001F0DCFC0127257C0B
:102B20002CE7914B9649C3F8A84004222A2001F0D3
:102B3000D1FC0127257C21E78B4B9249C3F8A440A7
:102B40000422292001F0C6FC0127257C16E7864BCC
:102B50008D49C3F8A0400422282001F0BBFC0127C6
:102B6000257C0BE7804B8949C3F89C400422272031
:102B700001F0B0FC0127257C00E77B4B8449C3F8BA
:102B800098400422262001F0A5FC0127257CF5E6CB
:102B9000754B8049C3F894400422252001F09AFC2B
:102BA0000127257CEAE6704B7B49C3F8904004225C
:102BB000242001F08FFC0127257CDFE66A4B774952
:102BC000C3F88C400422232001F084FC0127257CDB
:102BD000D4E6654B7249C3F888400422222001F0F4
:102BE00079FC0127257CC9E65F4B6E49C3F8844018
:102BF0000422212001F06EFC0127257CBEE65A4B01
:102C00006949C3F880400422202001F063FC0127B9
:102C1000257CB3E6544B6549DC6704221F2001F094
:102C200059FC0127257CA9E64F4B61499C6704228A
:102C30001E2001F04FFC0127257C9FE64A4B5D4991
:102C40005C6704221D2001F045FC0127257C95E6E8
:102C5000454B59491C6704221C2001F03BFC01270D
:102C6000257C8BE6404B5549DC6604221B2001F095
:102C700031FC0127257C81E63B4B51499C660422AF
:102C80001A2001F027FC0127257C77E6364B4D49B9
:102C90005C660422192001F01DFC0127257C6DE6ED
:102CA000314B49491C660422182001F013FC01270E
:102CB000257C63E62C4B4549DC650422172001F096
:102CC00009FC0127257C59E6274B41499C650422D4
:102CD000162001F0FFFB0127257C4FE6224B3D49E2
:102CE0005C650422152001F0F5FB0127257C45E6F3
:102CF0001D4B39491C650422142001F0EBFB012710
:102D0000257C3BE6184B3549DC640422132001F096
:102D1000E1FB0127257C31E6134B31499C640422F9
:102D2000122001F0D7FB0127257C27E60E4B2D4909
:102D30005C640422112001F0CDFB0127257C1DE6F7
:102D4000094B29491C640422102001F0C3FB012710
:102D5000257C13E6044B2549DC6304220F2001F097
:102D6000B9FB0127257C09E60817FF1FBD1E0000DF
:102D7000311E0000A51D0000191D00008D1C000063
:102D8000011C0000751B0000E91A00005D1A00001C
:102D9000D119000045190000B91800002D180000D5
:102DA000A11700001517000089160000FD1500008E
:102DB00071150000E514000059140000CD13000047
:102DC00041130000B5120000291200009D110000FF
:102DD0001111000085100000F90F00006D0F0000B8
:102DE000E10E0000550E0000C90D00003D0D000071
:102DF000B34BB4499C6304220E2001F06BFB012706
:102E0000257CBBE5AE4BB0495C6304220D2001F08C
:102E100061FB0127257CB1E5A94BAC491C63042269
:102E20000C2001F057FB0127257CA7E5A44BA849FE
:102E3000DC6204220B2001F04DFB0127257C9DE57F
:102E40009F4BA4499C6204220A2001F043FB012706
:102E5000257C93E59A4BA0495C620422092001F08D
:102E600039FB0127257C89E5954B9C491C6204228E
:102E7000082001F02FFB0127257C7FE5904B984926
:102E8000DC610422072001F025FB0127257C75E584
:102E90008B4B94499C610422062001F01BFB012707
:102EA000257C6BE5864B90495C610422052001F08E
:102EB00011FB0127257C61E5814B8C491C610422B3
:102EC000104601F007FB0127257C57E57C4B88491C
:102ED000DC600422032001F0FDFA0127257C4DE58A
:102EE000774B84499C600422022001F0F3FA012709
:102EF000257C43E5724B80495C600422012001F08F
:102F0000E9FA257C3AE56E4B7C491C6004220020DE
:102F100001F0E0FA0127257C30E5694B7849C3F8D8
:102F2000E84004223A2001F0D5FA0125DAE4644BA6
:102F30007449C3F8E4400422392001F0CBFA01259A
:102F4000D0E45F4B7049C3F8E0400422382001F020
:102F5000C1FA0125C6E45A4B6C49C3F8DC4004228F
:102F6000372001F0B7FA0125BCE4554B6849C3F896
:102F7000D8400422362001F0ADFA0125B2E4504BCE
:102F80006449C3F8D4400422352001F0A3FA012596
:102F9000A8E44B4B6049C3F8D0400422342001F030
:102FA00099FA01259EE4464B5C49C3F8CC400422C3
:102FB000332001F08FFA012594E4414B5849C3F8BE
:102FC000C8400422322001F085FA01258AE43C4BF6
:102FD0005449C3F8C4400422312001F07BFA012592
:102FE00080E4374B5049C3F8C0400422302001F040
:102FF00071FA012576E4324B4C49C3F8BC400422F7
:103000002F2001F067FA01256CE42D4B4849C3F8E5
:10301000B84004222E2001F05DFA012562E4284B1D
:103020004449C3F8B44004222D2001F053FA01258D
:1030300058E4234B4049C3F8B04004222C2001F04F
:1030400049FA01254EE41E4B3C49C3F8AC4004222A
:103050002B2001F03FFA012544E4194B3849C3F80D
:10306000A84004222A2001F035FA01253AE4144B45
:103070003449C3F8A4400422292001F02BFA012589
:1030800030E40F4B3049C3F8A0400422282001F05F
:1030900021FA012526E40A4B2C49C3F89C4004225E
:1030A000272001F017FA01251CE4054B2849C3F835
:1030B00098400422262001F00DFA012512E400BFF9
:1030C0000817FF1FB10C0000250C0000990B000031
:1030D0000D0B0000810A0000F509000069090000DD
:1030E000DD08000051080000C50700003907000096
:1030F000AD0600002106000095050000090500004E
:10310000C124000035240000A92300001D23000075
:10311000912200000522000079210000ED2000002E
:1031200061200000D51F0000491F0000BD1E0000E7
:10313000311E0000A51D0000191D00008D1C00009F
:10314000011C0000751B0000E91A00005D1A000058
:10315000D1190000C34BC449C3F894400422252070
:1031600001F0B8F90125FFF7BDBBBE4BBF49C3F85D
:1031700090400422242001F0ADF90125FFF7B2BBF5
:10318000B84BBB49C3F88C400422232001F0A2F9BC
:103190000125FFF7A7BBB34BB649C3F8884004220B
:1031A000222001F097F90125FFF79CBBAD4BB249F6
:1031B000C3F884400422212001F08CF90125FFF797
:1031C00091BBA84BAD49C3F880400422202001F0F8
:1031D00081F90125FFF786BBA24BA949DC670422D0
:1031E0001F2001F077F90125FFF77CBB9D4BA54916
:1031F0009C6704221E2001F06DF90125FFF772BBC8
:10320000984BA1495C6704221D2001F063F9012558
:10321000FFF768BB934B9D491C6704221C2001F0FB
:1032200059F90125FFF75EBB8E4B9949DC660422F4
:103230001B2001F04FF90125FFF754BB894B95493D
:103240009C6604221A2001F045F90125FFF74ABBCC
:10325000844B91495C660422192001F03BF9012559
:10326000FFF740BB7F4B8D491C660422182001F0FC
:1032700031F90125FFF736BB7A4B8949DC65042219
:10328000172001F027F90125FFF72CBB754B854965
:103290009C650422162001F01DF90125FFF722BBD1
:1032A000704B81495C650422152001F013F901255A
:1032B000FFF718BB6B4B7D491C650422142001F0FD
:1032C00009F90125FFF70EBB664B7949DC6404223E
:1032D000132001F0FFF80125FFF704BB614B75498E
:1032E0009C640422122001F0F5F80125FFF7FABAD8
:1032F0005C4B71495C640422112001F0EBF801255C
:10330000FFF7F0BA574B6D491C640422102001F0FE
:10331000E1F80125FFF7E6BA524B6949DC63042264
:103320000F2001F0D7F80125FFF7DCBA4D4B6549B6
:103330009C6304220E2001F0CDF80125FFF7D2BADC
:10334000484B61495C6304220D2001F0C3F801255C
:10335000FFF7C8BA434B5D491C6304220C2001F0FF
:10336000B9F80125FFF7BEBA3E4B5949DC62042289
:103370000B2001F0AFF80125FFF7B4BA394B5549DE
:103380009C6204220A2001F0A5F80125FFF7AABAE1
:10339000344B51495C620422092001F09BF801255D
:1033A000FFF7A0BA2F4B4D491C620422082001F000
:1033B00091F80125FFF796BA2A4B4949DC610422AE
:1033C000072001F087F80125FFF78CBA254B454906
:1033D0009C610422062001F07DF80125FFF782BAE6
:1033E000204B41495C610422052001F073F801255E
:1033F000FFF778BA1B4B3D491C610422104601F0CF
:1034000069F80125FFF76EBA164B3949DC600422D2
:10341000032001F05FF80125FFF764BA114B35492D
:103420009C600422022001F055F80125FFF75ABAEA
:103430000C4B31495C600422012001F04BF8FFF78E
:1034400051BA084B2D491C600422002001F042F8BB
:103450000125FFF747BA0027FFF790BA0025FFF7CD
:1034600041BA00BF0817FF1F45190000B918000036
:103470002D180000A1170000151700008916000084
:10348000FD15000071150000E5140000591400003E
:10349000CD13000041130000B512000029120000F6
:1034A0009D1100001111000085100000F90F0000AF
:1034B0006D0F0000E10E0000550E0000C90D000068
:1034C0003D0D0000B10C0000250C0000990B000020
:1034D0000D0B0000810A0000F509000069090000D9
:1034E000DD08000051080000C50700003907000092
:1034F000AD0600002106000095050000090500004A
:1035000010B5044601F0A4FAE26C94ED086AD4ED1B
:103510000E5A94ED097AE064831A904238BFDB4377
:1035200007EE903AB5EEC06AF8EE676ADFED197AF9
:10353000F1EE10FA86EEA70A37EE657A22DD66EE26
:10354000407AF0EE466AB4EEE77AF1EE10FA08D46B
:1035500066EE807AB4EEE77AF1EE10FAD8BFF0EEBC
:10356000477A77EEA57A94ED0F7AC4ED0E7A60EE85
:10357000277ADFED096A77EEA77AA7EEA67A84EDBF
:103580000F7A10BDF1EE466A60EE067AC8BFF0EE23
:10359000466AD8E700247449DB0F4940426D002A8F
:1035A00058D030B4137C012B1DD972B6D16862B6E5
:1035B000836C90ED075ADFED355AD0ED116A8164C6
:1035C0005B1A07EE903AB8EEE77AB5EE006AC7EEFE
:1035D000057A30BC77EEA77A67EEA57AE7EE866AC1
:1035E000C0ED116A704772B692E818001978257814
:1035F000547A137A254201EA03012ED0937A03F01C
:10360000030309B143F0040343F008039910013B9D
:1036100091720D2BCAD801A151F823F08336000016
:103620007B360000733600007B360000AD350000AD
:103630006B36000083360000833600006B360000D6
:10364000AD3500007B360000733600007B3600008D
:1036500083360000C36B43647047937A03F003031F
:103660000029D3D043F00403D0E7D368991ED1607A
:103670009DE7D368991CD16099E7D368591ED16042
:1036800095E7D368591CD16091E700BFDB0F494033
:1036900010B5044684B003AB02AA01A9FFF716F8DF
:1036A000207A019900F0A4FF207B029900F0A0FF8E
:1036B000207C039900F09CFF04B010BD10B50446B7
:1036C000FFF71EFF2046FFF769FF94ED0F7A94ED98
:1036D000116AD4ED0C6A334BDFED335A93ED005A87
:1036E00077EE467AE0EE276A67EE857AF4EEE56AD1
:1036F000F1EE10FAC4ED0D7A4AD4DFED2C5AF4EE57
:10370000656AF1EE10FAC8BFF0EE656A284BDFED8E
:10371000265A93ED005AC4ED0C6AE6EE857AF4EE73
:10372000E57AF1EE10FA36D4DFED206AF4EE667A2F
:10373000F1EE10FAC8BFF0EE667ADFED1C6A76EEA5
:10374000665A77EE877AB4EEE57AF1EE10FAC4EDB8
:103750000B7A23D436EE266AB4EE467AF1EE10FAEE
:10376000C8BFB0EE467AD4ED107A84ED0F7A77EECA
:10377000677A84ED107A87EE807A2046DFED0D6A55
:10378000C7EE267AC4ED0E7ABDE81040FFF780BF81
:10379000F0EE656ABAE7F0EE657ACEE7B0EE657AEC
:1037A000E1E700BFDC07FF1F920A06BF920A063F4F
:1037B000D807FF1FDB0FC94010B504462DED068B5F
:1037C00080F8501000295ED0DFED329A9FED329ADA
:1037D000C0ED0E9AC0ED119AC0ED0B9AC0ED0F9A94
:1037E000C0ED0C9AC0ED0D9AC0ED0A9AFFF750FF9C
:1037F000012120799FED29AADFED298A01F01CF92A
:10380000322001F047F994ED117AC4ED0A9AB0EE36
:10381000698AD4ED0B7AF1EE006AE7EE667A20460B
:10382000C4ED0B7AFFF734FF142001F033F9204682
:10383000FFF7B4FE94ED117AD4ED0A7A37EE488A98
:10384000B5EEC08AF1EE10FAD8BFB1EE488AB4EEF8
:10385000C98AF1EE10FA03D577EE8A7AC4ED0A7AB6
:10386000F4EEE87AF1EE10FAB0EE478AD1D4BDEC6E
:10387000068BE36A0B4AE3636364A2622046BDE8F9
:103880001040FFF705BFBDEC068B0079BDE8104086
:1038900001F0D2B80000000035FA0E3C0AD7A33B75
:1038A000CDCC4C3ECDCC4C3D10B52B4C2B480F21F4
:1038B00001F03EFC204600F0D5FB0821284801F02D
:1038C00037FC204600F0CEFB0D21264801F030FCED
:1038D000204600F0C7FB0D21234801F029FC2046BB
:1038E00000F0C0FB0B21214801F022FC204600F033
:1038F000B9FB0B211E4801F01BFC204600F0B2FB77
:1039000014211C4801F014FC204600F0ABFB1521EB
:10391000194801F00DFC204600F0A4FB1F211748B8
:1039200001F006FC204600F09DFB1F21144801F029
:10393000FFFB204600F096FB0A21124801F0F8FB3D
:10394000204600F08FFB1048032101F0F1FB2046D8
:10395000BDE8104000F086BB0818FF1F60B10000F2
:1039600070B100007CB100008CB100009CB100007F
:10397000A8B10000B4B10000CCB10000E4B1000077
:1039800004B2000024B2000030B200002DE9F04182
:103990002DED028BD04E9FEDD18ADFEDD18A82B022
:1039A0000446FFF781FF33680093009D00273368CA
:1039B0000193019AABB291B2994203D020461546C9
:1039C000FFF77CFE01F046FCC0B21B385928EED848
:1039D00001A353F820F000BF993D0000AF3900006B
:1039E000AF390000AF390000AF390000AF39000037
:1039F000AF390000AF390000AF390000AF39000027
:103A0000AF390000AF390000AF390000AF39000016
:103A1000AF390000913D00005B3D0000AF39000070
:103A2000153D0000AF390000AF390000C53C000073
:103A3000AF390000AF390000AF390000AF390000E6
:103A4000AF390000AF390000AF390000AF390000D6
:103A5000AF390000AF390000AF390000AF390000C6
:103A6000AF390000AF390000AF390000AF390000B6
:103A7000AF390000AF390000AF390000AF390000A6
:103A8000AF390000AF390000AF390000AF39000096
:103A9000B53C0000AF390000AF390000AF3900007D
:103AA000AF390000AF390000AF390000A53C00007D
:103AB000AF390000AF390000AF390000833C00008F
:103AC000AF390000AF390000AF390000AF39000056
:103AD000AF390000AF390000AF390000AF39000046
:103AE000AF390000AF3900006B3C0000AF39000077
:103AF000AF390000AF390000AF390000AF39000026
:103B0000573C0000AF390000AF3900004F3C0000C7
:103B1000473C0000AF390000AF390000AF3900006A
:103B2000AF390000AF390000AF390000133C00008E
:103B3000AF390000F53B0000AF390000413B000009
:103B4000D4ED187A77EEE87AF5EEC07AF1EE10FA55
:103B500000F12C81C4ED187AC4ED0A7A0221614883
:103B600001F0E6FAA06D06F003FA41EC100B022119
:103B70005D4800F0D1FA0A215C4801F0D9FAA06B47
:103B800006F0F6F941EC100B0221574800F0C4FA98
:103B90000321574801F0CCFAE16D534800F0B2FA26
:103BA0000321544801F0C4FA206E06F0E1F941EC1B
:103BB000100B02214C4800F0AFFA03214E4801F0EF
:103BC000B7FA00F045FF002301460A22464800F0FC
:103BD00059FA94F86430002B00F0E380082147483C
:103BE00001F0A6FA0221464801F0A2FA3E4800F090
:103BF00039FADCE694ED177AD4ED167AB8EEC77A86
:103C0000F1EE677A84ED087AC4ED167AC4ED097A8C
:103C1000A4E7DFF8F8803B48D8ED007A77EEC87A61
:103C2000C8ED007A022101F083FAD8F8000006F00E
:103C30009FF941EC100B02212B4800F06DFA2A4845
:103C400000F010FA8AE7DFF8C8802F48E4E7204642
:103C5000FFF72AFE82E794F8641081F0010184F8EE
:103C600064102046FFF7A8FD78E7E36DA26D013BE5
:103C700007EE903AF8EEE77AE365C4ED087A6262FF
:103C80006CE7D4ED187A77EEA87AB7EE007AF4EE06
:103C9000C77AF1EE10FA7FF75DAFF0EE477A84ED68
:103CA000187A59E7DFF864801648D8ED007A77EE85
:103CB000887AB5E7DFF858801348D8ED007A77EEB8
:103CC000887AADE7D4ED177AA765F8EEE77A6762F0
:103CD000C4ED087A42E700BF1818FF1F0AD7A33CBB
:103CE000CDCC4C3D60B200000818FF1F58B2000058
:103CF00064B2000068B200006CB200003CB2000088
:103D000054B2000034B2000038B20000DC07FF1FDC
:103D1000D807FF1FD4ED167AF5EEC07AF1EE10FA4F
:103D2000D4BFF1EE676AF0EE676AB0EE007AF4EEA7
:103D3000C76AF1EE10FA56BFB7EE007A77EEE87A6E
:103D400077EEC77AC4ED167AC4ED097AD4ED177A06
:103D5000F8EEE77AC4ED087A00E7D4ED167AF5EECE
:103D6000C07AF1EE10FAD4BFF1EE676AF0EE676A3E
:103D7000B0EE007AF4EEC76AF1EE10FA56BFB7EE75
:103D8000007A77EEA87A77EE877AC4ED167ADBE7C9
:103D9000E36DA26D01336BE702B0BDEC028BBDE8B1
:103DA000F0810921034801F0C3F91BE7DFED027A36
:103DB0002766D1E648B200000000000010B50521DA
:103DC0000446074801F0B4F9204606F099FF014681
:103DD000204601F0ADF90348BDE8104000F042B9BB
:103DE00070B200000818FF1F70B5194B194A5A60CD
:103DF00082B00022184D1A70032640F623001E726E
:103E00001A7600F07BFF07211448154C01F090F959
:103E1000284600F027F90523324620460093022168
:103E20000423FEF7A7FC4FF48063072220460621F7
:103E3000FEF7D8FC0A210B4801F07AF9284600F079
:103E400011F9204602B0BDE87040FFF79FBD00BFEA
:103E50008416FF1FE007FF1F0818FF1F80B2000035
:103E6000A016FF1F88B2000030B5224D224C2B68EF
:103E7000617E85B00193019AE368D31A9BB299429F
:103E800020D86168E26000292ED023786078DA08B3
:103E9000DB438A5C03F00703012101FA03F31340BB
:103EA00008BF194600F0C8FD2378227A1249013371
:103EB000DBB2B3EBC20F2370A4BF00230B70237ED1
:103EC0000D4A73B92B680393039B2A680292029AE6
:103ED0009BB292B29A4202D00848FFF7EFFB05B0BE
:103EE00030BD00235360EDE76078012100F0A4FDB0
:103EF000E8E700BF1818FF1F8416FF1FA016FF1F5A
:103F0000F0B5114A114B1268114E83B00D24019285
:103F10000199D960012200251A7511461D612046BC
:103F200032275F765D605C7000F08CFD294620468C
:103F300000F082FD3046FEF7EDFB3046054A0649AB
:103F400006F0B2FB03B0F0BD1818FF1F8416FF1F68
:103F5000A016FF1FD407FF1F6D0400000368C9B23D
:103F60001B6818470368C9B21B6818470368C9B2C1
:103F70001B6818470368C9B21B68184708B508468C
:103F800001F0CCF8012008BD08B5084601F0C6F8DC
:103F9000012008BD38B508460D4606F0B1FE0446BE
:103FA0000146284601F0C4F8204638BD10B5084641
:103FB0001446114601F0BCF8204610BD01F028B9A6
:103FC00001F096B908B5084601F080F8003018BF36
:103FD000012008BD08B5084601F056F8003018BFAA
:103FE000012008BD0846114600F0CABF084601F08E
:103FF00011B800BF084600F0A7BF00BF00F034BFF3
:10400000034B03EB5100B0FBF1F000F077BE00BFB3
:10401000001C4E0E10B5064B144603EB5100B0FBCE
:10402000F1F000F06BFE2046BDE8104000F0E6BE67
:10403000001C4E0E01F0E0B801F040B901F00AB9E1
:1040400001F0F8B8704700BF044B054A1A604FF4FE
:104050007A71002299601A711A7370470818FF1F4D
:104060009CB2000000B5064A036812885B6883B002
:1040700001A9ADF804200222984703B05DF804FBC3
:10408000F4B20000F0B507468BB0002A33D0012A05
:1040900008BF0A2251B3212400E0F4B2B1FBF2F5CB
:1040A00002FB1511C8B2092900F1300198BFC8B24E
:1040B0000AA988BF3730214488BFC0B201F8240C58
:1040C000661E2946002DE8D133B1013CE4B20AABAB
:1040D00023442D2203F8242C3B6801AA11195B68A4
:1040E0003846C4F1220298470BB0F0BD30228DF85B
:1040F00025202124E8E70368C9B21B6898470BB064
:10410000F0BD00BF0029BABF49422D2300230A2277
:10411000FFF7B8BFFFFFFFFF2DE9F04357EC106B2F
:1041200085B005460C4610EE102A3B4610EE100AEC
:10413000394606F00BFA002840F0B28027F000491B
:10414000304649464FF0FF32594B06F0FFF990B91F
:10415000304649464FF0FF32554B06F0D9F950B979
:104160002B6854495B68284603229847804640469E
:1041700005B0BDE8F0834FF060424F4B3046394602
:1041800006F0DAF9002872D14FF060424B4B30460E
:10419000394606F0B3F9002869D1002200233046E1
:1041A000394606F0ABF9002864D18146002C67D06F
:1041B000434900204FF000083BA3D3E9002308F156
:1041C000010805F029FF5FFA88F39C42F4D8024603
:1041D0000B463046394605F06DFD0F46064606F0A3
:1041E000F3F9804605F0A2FE02460B4630463946FA
:1041F00005F05EFD4B4606460F460A22414628461C
:10420000FFF740FF0F2C28BF0F2404F101092E23D4
:1042100080465FFA89F98DF8003001240022294B8D
:104220003046394605F0F8FE0F46064606F0CCF952
:1042300004AB2344C0B200F1300203F8102C05F0A7
:1042400085FE02460B463046394605F031FD013405
:10425000E4B2A14506460F46E0D12B684A465B68AA
:10426000284669469847404605B0BDE8F0832B686C
:10427000154977E707F100431F464FF0010995E71D
:1042800000220F4B3046394605F014FD06F09CF92C
:104290004B4601460A222846FFF7F4FE804666E7B1
:1042A0002B680A495EE700BF000000A09999B93F5A
:1042B000FFFFEF7F00B30000FFFFEF41FFFFEFC103
:1042C0000000E03F00002440FCB20000F8B2000013
:1042D00008B5FFF789FDFFF7C7FD01F089FFFAE791
:1042E000024A136801331360704700BF1818FF1F9C
:1042F00008B5104C08E0236859050DD423681A0549
:104300000FD42368DB0411D423685803F3D501F0DC
:1043100055F923685905F1D501F010F823681A05FD
:10432000EFD502F009FF2368DB04EDD503F0C4F9F3
:10433000EAE700BF3480044008B5FFF7D9FF00BFAB
:10434000014B10221A80704700200540704700BFC3
:10435000094908B50B6830B16A461844A2F5005205
:10436000904202D20860184608BD06F0A9F90C2355
:1043700003604FF0FF3008BDE407FF1FEFF3138029
:1043800070B9EFF310836BB9EFF305825AB94FF4AC
:104390008070EFF311832BB1984228BF1846704705
:1043A0004FF0FF3070470F2A01D81846F1E7014B54
:1043B000D05CEEE7F0E300E006F0B0B906F0B6B985
:1043C000F0B44D1E2E46002400E00134B0FBF2F3A1
:1043D00002FB1300092800F130078ABF3730F8B21A
:1043E000C0B206F8010F1846002BEED10A1953701F
:1043F0004CB1107815F8016F28700133E01A834230
:1044000002F80169F5DB0846F0BC7047704700BF51
:1044100010B4114B53F8302092F8804234B101238C
:1044200079B182F880305DF8044B704703EBC0032C
:104430005B681A6851B922F002021A605DF8044BF9
:10444000704782F800315DF8044B704742F0030278
:104450001A605DF8044B704704B300001C4A02EB7D
:10446000C00301295B6811D004291BD052F8300029
:10447000002280F8802229B1022920D0032922D0ED
:104480001A6070474FF480721A60704752F830001B
:104490004FF4A27280F880121A601A6822F020028B
:1044A0001A60704752F830104FF4A272012081F860
:1044B00080021A601A6842F020021A60704740F2C7
:1044C00003121A6070474FF481721A60704700BF80
:1044D00004B300003F2817D8F8B5042A13D8DFE842
:1044E00002F0494C4F1446002C4872B6236823F45E
:1044F000702343F08072C4F384011643236040F8B4
:104500002150266062B6F8BD70474FF41026244B48
:1045100003EBC0030D465C68216811F4E06134D000
:10452000204B214A2149C3F82C2104F14042204864
:10453000C3F83411A2F592211E4FC3F830017C2933
:104540001D48C3F83871C3F83C01CDD9A2F59423B6
:104550007C2B18D9A2F596237C2B19D9A2F5982388
:104560007C2B17D9A2F59A227C2A15D9F8BD4FF4D5
:104570003026CCE74FF40026C9E74FF44026C6E7C3
:104580004FF42026C3E70D48AFE7FFF767FFC7E703
:104590000B48AAE70B48A8E70B48A6E7E807FF1F68
:1045A00004B300000002FF1FA907FF1F5107FF1FF0
:1045B0007D07FF1F2507FF1FF906FF1F6008FF1F6C
:1045C000C008FF1FF008FF1F3009FF1F30B4054B64
:1045D000054D064C002210211A602A6020601960E7
:1045E00030BC704714D0034004D0034000D00340D7
:1045F00038B5A0F14203012B04461FD9002975DD0F
:10460000904B1B78012505FA03F28A4202D83F2815
:1046100027D938BDC21E012A2BD9A0F11D02012ABB
:1046200073D90E2856D9A4F12302032A57D9864AF2
:10463000126802FB011222FA03F320E0814B1B787F
:104640000B2B0AD90C2B1CBF0C3B1941422C0846E2
:1046500057D0BDE8384002F027BAC3F10C039940A7
:10466000F4E72946FFF7D4FE2946BDE83840FFF7B6
:10467000F5BE764A126802FB011222FA03F3A21E6B
:10468000242A00F2D580DFE812F0CC00C500BE007D
:10469000B700B000A900A2009B009400D300D30093
:1046A000D3008D00D300D300D300D300D300860005
:1046B0007F0078007100D300D300D300D300D30073
:1046C0006A006300D300D300D300D3005C00550020
:1046D0004E00470044F28412C240D207A3D55C4A80
:1046E000126802FB011222FA03F3C8E73F2890D8B0
:1046F0000021FFF78DFE20460121BDE83840FFF77D
:10470000ADBEBDE8384002F0AFB9524A126802FBB4
:10471000011222FA03F3B2E74F49504A0B604FF4FB
:104720005173136038BD4E494E4A0B604FF45173BC
:10473000136038BD4C494D4A0B604FF45173136000
:1047400038BD4B494B4A0B604FF45173136038BD71
:1047500049494A4A0B604FF45173136038BD4849C8
:10476000484A0B604FF45173136038BD4649474ABD
:104770000B6040F24443136038BD4549454A0B6025
:1047800040F24443136038BD4349444A0B6040F251
:104790004443136038BD4249424A0B6040F24443EF
:1047A000136038BD4049414A0B6040F244431360F6
:1047B00038BD3F493F4A0B6040F24443136038BD67
:1047C0003D493E4A0B6040F24443136038BD3C49CA
:1047D0003C4A0B6040F24443136038BD3A493B4ABF
:1047E0000B6040F24443136038BD3949394A0B60CD
:1047F00040F24443136038BD3749384A0B6040F2F9
:104800004443136038BD3649364A0B604FF4517348
:10481000136038BD3449354A0B604FF4517313604F
:1048200038BD3349334A0B6040F24443136038BD0E
:104830003F2C3FF6EEAE7F29D4BF00210121204658
:1048400057E700BF9C09FF1F088003400890034002
:1048500008900B4008800B4048900B402CB004405F
:1048600040900B4028B0044038900B4024B00440E6
:1048700030900B4020B0044018800B404CA0044006
:1048800010800B4048A004401880034008B004404A
:104890001080034004B004404080034018C004402E
:1048A0003880034014C0044018900B4004C00440FA
:1048B0002880034010B00440208003400CB0044026
:1048C00028900B400CC0044020900B4008C00440CE
:1048D0003080034010C00440488003401CC00440A6
:1048E00018900340349004401090034030900440EE
:1048F00010900B4000C0044030B1102828BF102099
:10490000034BC0B218707047014B012018707047FC
:104910009C09FF1FDFED387ADFED386A384AB4EEC4
:10492000E70AF1EE10FA47F6122370B446BF1A46B2
:1049300002240124002322FA03F107EE901AF8EE74
:10494000E77A27EEA67AB4EEC70AF1EE10FA07DA94
:104950000133072BEFD1D20907EE902AF8EEE77A60
:1049600087EE807A4FF6FF71C21EF6EE007A77EE80
:10497000677AFCEEE77A17EE905A8D4228BF0D4613
:10498000012A29462AD9172815D9A0F11D02012A82
:104990002ED90E2826D9A0F12302032A1CD8194AA1
:1049A000194E1A4D43EAC40300201060306029609C
:1049B000136070BC7047164AC24002F0010282F0D8
:1049C0000105002AE1D0134A134E1448156043EA4A
:1049D000C40335600160136070BC7047104A114E0B
:1049E000114DDFE744F28412C240D207D7D4D2E798
:1049F0000E4A0F4E0F4DD5E7C0E1E440000080376E
:104A00000087930300900B4004900B4008900B40EC
:104A10006006F000008003400480034008800340EB
:104A200000900340049003400890034000800B4036
:104A300004800B4008800B403F2801D8FFF7E8BCFA
:104A4000704700BF3F2801D8FFF708BD704700BF7F
:104A500072B60C490C4B0D4A1B680868126862B6A6
:104A6000520102D5322B88BF01300949C3F5EA3320
:104A70004FF47A72BF33A1FB031302FB00F000EB8B
:104A8000931070471818FF1F18E000E004ED00E0D5
:104A9000898888882DE9F843054672B6204F214B56
:104AA000214A1B683C68126862B6520102D5322B5B
:104AB00088BF013495B3C3F5EA331C4EDFF8649028
:104AC000DFF86480BF334FF47A72A6FB031302FB56
:104AD00004F404EB931472B6D9F800103A68D8F8CD
:104AE00000E062B6C1F5EA33BF33A6FB03031EF054
:104AF000806FC4EB93134FF47A7002D0322988BFD1
:104B0000013200FB0233B3F57A7F04D3013D05D0B7
:104B100004F57A74DFE701F06BFBDCE7BDE8F883AE
:104B20001818FF1F18E000E004ED00E0898888886D
:104B3000F8B53E4B3E49DFF818C13E4E3E4ADFF81D
:104B400014E13E4D3E4C3F4F4FF0006018604FF077
:104B5000805018604FF0005018604FF0804018608F
:104B60004FF0004018600020086028234EF6FF71C7
:104B7000CCF80010CEF8003033600EF5012E136033
:104B80002B60236005F500253B6004F50024B3622B
:104B900007F50027936206F5012602F501220EF1C2
:104BA000100E05F6E87504F6E87407F57F67103215
:104BB00020362B602360CEF800303B6013603360FA
:104BC000214EBB61936109223260A7F5002706F5EB
:104BD0008056203F083638603160BB60F36047F88C
:104BE000042C06F5FD2607F5FE2706F2FC760437B1
:104BF00030603960B360FB6046F8042C0836C7F8B3
:104C0000FC0F06F6FC76114831602B6023600260D1
:104C100001F0BAFE3220FFF73DFF01F0F9F84FF442
:104C2000AF70BDE8F840FFF735BF00BF04E100E01A
:104C300004800340148003401C8003402480034010
:104C40002C800340348003400080034000900B40E0
:104C5000088003400C8003402DE9F84F214B1B686E
:104C600007460BB101221A70DFF888901E4D99F8A3
:104C70000040DFF884801D4E01343F2C8ABF4FF086
:104C8000000A5FFA84FA5446AB462B78A34216D149
:104C9000FFF774FB40281FDC33791B06F5D59BF822
:104CA000003001333F2B86BF00221346DAB218F8DA
:104CB0000330DBB2F3712A702B78A342E8D00C49A1
:104CC0000A4BFFB208F804700120BC22087089F872
:104CD00000A0DA70BDE8F88FFF28D6DD01F088FA71
:104CE000D3E700BF6C19FF1F6919FF1F00A0064022
:104CF0006819FF1F7019FF1F2418FF1F2E4A2F4924
:104D00001368F0B543F4806313600A782C4F2D4E7E
:104D10002D4D2E4C2E490023152A3B8033802B70BD
:104D200023700B7043D01B2A3CD04AB3294B1B780D
:104D3000052B2DD01A2B30D0012B1CD0264B274C05
:104D40002749C0F34436C0F347151E7000F01F001A
:104D50005D7004224FF0020E88273C264025987291
:104D60009A704FF0004083F813E05A751F74DE709C
:104D700025700860F0BD1B4B4FF451721A60DDE7DF
:104D8000194B40F213321A60124B1B78052BD1D10C
:104D9000164B4FF451721A60D0E7154B4FF4517215
:104DA0001A60CBE7134B40F213321A60BEE7124B86
:104DB00040F213321A60B9E7348004406418FF1FD0
:104DC0002018FF1F2218FF1F7019FF1F6919FF1FEE
:104DD0006819FF1F9D09FF1F00A006401FE400E0A7
:104DE00000E100E044A0044040A004401CC0044096
:104DF000389004403C90044018C00440194B1949B5
:104E00009B7803F0EC0200F003031343420700F029
:104E10000F0248BF43F01003042A8B701CD0114BC3
:104E2000104A5B79C10603F0EF0348BF43F010035B
:104E300053719379820603F0EF030A4A48BF43F0A7
:104E400010039371C30506D553781178DBB241F096
:104E500020011170537070478B7943F040038B71C0
:104E6000DDE700BF00A00640284B1B685B0533D57B
:104E700010B5274C237823B101F0BAF92378002B21
:104E8000FAD12448244A254B4FF000440021046005
:104E9000D1701B78152B20D01B2B32D01BB9204B87
:104EA00040F203121A601F4B1B7803F07F03052B9F
:104EB0001DD01A2B20D0012B03D11B4B40F2031223
:104EC0001A601A4B1A481B491A68002303800B808A
:104ED0000AB10123137010BD7047174B40F2031243
:104EE0001A60104B1B7803F07F03052BE1D1134BA5
:104EF00040F203121A60E4E7114B40F203121A6009
:104F0000DFE7104B40F203121A60CCE73480044014
:104F10006819FF1F80E100E000A006406418FF1F31
:104F200040A004409D09FF1F44A004401C18FF1F1F
:104F30002018FF1F2218FF1F18C004401CC0044087
:104F4000389004403C9004400A4A38B5054613782E
:104F500003F0FF04002BFAD101212846FFF772FD70
:104F600021462846FFF768FD034A044B52F83520D6
:104F70001A6038BD6819FF1F04B300006C19FF1FC9
:104F800009B140F080001E4A137898421BD010B43B
:104F90001C4C2468640513D503F07F03052B2AD02D
:104FA0001A2B24D0012B14D0002900F07F0114BF4C
:104FB00060234423052915D01A290ED0012903D0D6
:104FC00010705DF8044B70470F4943F440730B6059
:104FD000F6E70D4B00241C60E6E70C4943F44073F0
:104FE0000B60EDE70A4943F440730B60E8E7074BB9
:104FF00000241C60D8E7064B00241C60D4E700BFE7
:105000009D09FF1F3480044044A0044038900440B0
:105010001CC00440174A137883420ED01649096811
:10502000490509D5152B20D01B2B1AD05BB11528AB
:105030000DD01B2810D008B1107070470F4B40F2F4
:1050400013311960F8E70D4915280B60F1D10C4BAD
:1050500040F213311960EFE70A4B40F21331196047
:10506000EAE7084B00211960E1E7054B00211960D0
:10507000DDE700BF6418FF1F3480044040A00440F7
:1050800018C004403C9004400D4B1B6813F480632F
:1050900005D03F2805D90B4B0020186070471846F3
:1050A0007047094B10B5074C53F83030236001218D
:1050B000FFF7C8FC236800221A70012010BD00BF52
:1050C000348004401C18FF1F04B300000F4B1B6802
:1050D00013F4806308D0122808D0142811D00C4A89
:1050E000537B03F0FE03537300207047094B40F2DB
:1050F00002321A60064A537B43F0010353730120C6
:105100007047054B40F202321A60F3E734800440E6
:1051100000A006400CA0044014C00440034B1B68D0
:105120005B0501D5FFF798BD704700BF3480044090
:105130002DE9F84F294B1B685A0548D5284B1B68A9
:1051400005460BB101221A7005EB010A554540D204
:10515000DFF89C80234CDFF89C90234F0AE015F881
:10516000012B09F80B20214A0123AA45137088F866
:1051700000602ED098F80030227803F1010BBBF1CB
:105180003F0F86BF0026B3465FFA8BF69345E6D104
:10519000BC22FA7005E03A7913060BD422789345C5
:1051A000DDD1FFF7EBF84028F5DDFF28F6DD01F053
:1051B0001FF8F3E7227801323F2A86BF00210A4612
:1051C000D1B219F80220D2B2FA712170E6E7BDE837
:1051D000F88F054BBC22DA70BDE8F88F34800440AC
:1051E0006C19FF1F6919FF1F00A006406819FF1FF7
:1051F0007019FF1F2418FF1F10B5044C237823B12A
:1052000000F0F6FF2378002BFAD110BD6819FF1FBC
:10521000064A074B1B781078DBB2C0B283422CBF22
:105220003F3000F1FF30C01A704700BF6919FF1FFF
:105230007019FF1F054A064B10881B8880B29BB26D
:10524000984238BF00F58070C01A70472018FF1FC1
:105250002218FF1F154B30B4154C1A88238892B2C0
:105260009BB29A421FD00133FF2B0ED91149124B2A
:10527000087819680023C0B2238021B1D31ADA2B31
:1052800001DC00230B7030BC70470A480A49C05C3F
:1052900009689DB2C0B225800029F4D09A4238BF77
:1052A00002F58072EAE74FF0FF30ECE72018FF1FAD
:1052B0002218FF1F6818FF1F1C18FF1F094A0A4BFE
:1052C00012881B8892B29BB29A4208D00133B3F580
:1052D000807F28BF0023054AD05CC0B270474FF0E2
:1052E000FF3070472018FF1F2218FF1F6818FF1F8C
:1052F0000D4B1B685B0516D530B40C4B0C4CDA78A3
:105300000C480D4902F0CB024025DA705D74DA7862
:1053100042F03402DA70238802689BB20B800AB133
:105320000023137030BC70473480044000A0064056
:105330002218FF1F1C18FF1F2018FF1FF0B4394B45
:105340001A7912F0300F2DD072B6997D01F0FF025C
:1053500000293ED062B6344F344938880D88344E27
:105360001C4680B2ADB2431CB3F5807FE17928BF03
:105370000023AB4202F1FF32C9B21CBFF154184600
:1053800012F0FF02EFD12B4B1B6882B23A804BB177
:10539000A84236BFC5F58075401B4019E728C4BF39
:1053A00001221A701F49CA78D2B2150616D45206C5
:1053B0000DD51C4B1B795B0609D51F4B1F491B687C
:1053C00000220A7003B11A70164B3C22DA70F0BC4E
:1053D00070474022D9795A7462B6E3E70B791C060C
:1053E000E5D5174B174E1C783378E4B2DBB29C42FC
:1053F0000ED0154D01E0A3420AD00133402B28BF47
:1054000000230879E85CC0B2C871087D0728F2D98A
:10541000DBB2044933700B79180644BF7C23CB7090
:10542000C5E700BF00A006402018FF1F2218FF1F7D
:105430006818FF1F1C18FF1F6C19FF1F6819FF1F3A
:105440007019FF1F6919FF1F2418FF1F431E032B2C
:1054500014D872B60A4951F8230068B170B4094CE7
:10546000058834F81320466841F82360521B24F85D
:10547000132062B670BC704762B670470020704758
:10548000CC19FF1F741DFF1F013803280BD872B6FB
:10549000074B53F8203043B100205B680130002BEC
:1054A000FBD162B67047002070471846F9E700BF8D
:1054B000201AFF1FF0B472B61A491B4E012311F8CF
:1054C000014B194F9A00240742F0010505D556F803
:1054D000324064B156F83520BAB10133052BEED114
:1054E00062B6124B00221A70F0BC00F015BD0F4CD2
:1054F0000F4D217847F8325007EB431308304A1E0E
:105500005860227062B6F0BC70470849094B0A78AF
:1055100047F8353007EBC5030830013A58600A7088
:1055200062B6F0E7E4B600000000FF1F491AFF1F53
:1055300088004000C8004000431E032B1DD81B4AB2
:10554000400140F0100030B4104472B6184CE25CD8
:10555000032A1BD8DFE802F00212151703220D8878
:10556000E25410F0080F14BFC823882343EA054310
:1055700008310360416062B630BC704708300222D7
:10558000EDE70522EBE708300422E8E7094A52F884
:10559000230038B1084A52F82300416042F8231032
:1055A00062B6E9E742F82310034AF7E70000FF1F5D
:1055B000581AFF1F201AFF1F301AFF1F2DE9F04F46
:1055C000DFF800A3DFF800B387B044E0A84F4FEA4C
:1055D000930807EBC809013ED9F8042003F008033B
:1055E000F6B2A2F1080003F0FF04002B40F0FC80AB
:1055F00057F838301B0C99B222F8081C002B00F029
:10560000EA809C4B22F8064C42F8044C53F82620C2
:10561000002A00F02982984D55F826305860974CA2
:1056200045F8260034F81630194424F8161000F016
:1056300053FC002800F01182914A924B19F0080F98
:1056400000F1080018BF1346C9F8040047F83830C5
:1056500008238AF800309AF80040E4B260071AD5AF
:10566000894B1B78A3B189490A7802F0FF0322B164
:10567000013BDBB20B7003B900BE85490A7802F02A
:10568000FF032AB1013BDBB20B70002B00F0BB81A2
:1056900004238AF8003004F0080303F0FF02002B13
:1056A00000F0C6809BF80030DBB21E098ED19C084A
:1056B0006F4F57F8342007EBC401C2F38302013A5D
:1056C00049680C2A00F28380DFE802F07777818155
:1056D0008181818140818181070008686D4B6E4D19
:1056E0000193674B4A686D4E47F8343081B240F2FF
:1056F0008164684B6A60286000220120A1421A6020
:105700003A61BA61307000F2E180B1F5D06F80F09B
:105710002582B1F5817F00F0DE8100F2C181802910
:1057200000F03482822940F0DC81A9885C4B042996
:1057300000F2D8815B4C89000B44227062701A78A9
:10574000930740F122832070022023E2514B019302
:105750001A683AB3544B514E5449188834780D782E
:105760004028864645F0020828BF4FF0400E002C26
:1057700084F001043470CEEB00000CBF8824C824F0
:1057800007EBC80680B285F0010544EA0E4472605A
:10579000188047F8384072440D70002800F0B78038
:1057A000019B1A603C4B1A88B2F5A06F0FD1002103
:1057B0009A7859703E4B1A7009E0374A108842F2C5
:1057C0002102904200F0A8802D4A47F83420394A3F
:1057D000012313703CE72A4A2A4B19F0080F18BF1F
:1057E000134647F8383033E700F096FB324A334926
:1057F00052F82630002B00F03B8158688C5D42F84F
:10580000260003F10802C9F80420032C05D8DFE8BC
:1058100004F02C02292602228A551A8819F0080F52
:105820000CBF8823C82343EA024347F838300FE708
:10583000E00700F1EB80210600F12881A20706D5E0
:105840001F4A204913780220DBB213700870E30668
:1058500002D51C4B10221A7007B0BDE8F08F04224D
:105860008A55DAE705228A55D7E703228A55D4E715
:105870000000FF1FCC19FF1F7819FF1F741DFF1FA9
:10588000C800400088004000541AFF1FDD19FF1FA8
:105890005C1AFF1F7419FF1F401AFF1FDC19FF1F3E
:1058A000C02007404C1AFF1F8819FF1F481AFF1F0E
:1058B0009820074094200740201AFF1F581AFF1F06
:1058C00088200740802007409020074042F22104B2
:1058D000A14200F0948043D8B1F5086F00F0A88190
:1058E000B1F5106F40F0FD80B84AB94CA97811703D
:1058F00004F1800503E00834AC4200F09E81236A85
:105900001906F8D5606A083800F006FBF3E7BEF127
:10591000400F18BF002243E7AE4ACD1D11F8013BEE
:1059200002F8013FA942F9D1AB4A1268862A00F079
:105930001181AA49AA4E0A78307882F00105002820
:1059400042F002020D700CBF8821C82147F83210C6
:1059500007EBC20280F0010000213070516033E794
:1059600042F22124A14240F0FE81DFF8BCC29D4BEF
:105970009D49AC78DCF800501D6081460C70002019
:10598000029080468446044694490D7845F0020E04
:1059900007EBCE03B9F1000F5C600CBF8824C8246C
:1059A00044EA080385F0010447F83E3032700C7079
:1059B000DFF81CE28A4BDFF82482002840F0988050
:1059C000BCF1400F1BD144F0020407EBC403029F5B
:1059D000DFF8FCE15F60002A40F09F80020442F0A3
:1059E000880207444EF8342086F800900D703B463C
:1059F000402804D100207D4A019910800B607C4A28
:105A000001231370E3E600F0CFFB41E6704B7848CA
:105A100072491A614FF0020E80F800E0754F0A706B
:105A2000754919609960754E754D764C9A610D21D6
:105A30003970FF213170DFF8F4E129702270724D66
:105A4000724A8EF800109F27012406F8047C5D60DE
:105A50000470DA6007B0BDE8F08F6D4A47F838008F
:105A6000137801331370F3E543F82600694DD6E54A
:105A70008B5D032B67D801A252F823F0515600002A
:105A800051560000D15A0000CB5A000059495C4BD6
:105A900080220D2008701A70A2077FF5D8AECFE6DD
:105AA00040F20232914240F05681A98801F07F0114
:105AB000042916D86A88A2B94E4C89000C44814644
:105AC000217841F00201217059E701238B55BFE590
:105AD00000238B55BCE5A98801F07F01042940F221
